:100000000C9435000C945D000C945D000C945D0024
:100010000C945D000C945D000C945D000C945D00EC
:100020000C945D000C945D000C945D000C945D00DC
:100030000C945D000C945D000C945D000C945D00CC
:100040000C949E010C945D000C940E020C94E8013B
:100050000C945D000C945D000C945D000C945D00AC
:100060000C945D000C945D00530311241FBECFEF70
:10007000D8E0DEBFCDBF11E0A0E0B1E0E4E5F7E0FD
:1000800002C005900D92AE32B107D9F721E0AEE281
:10009000B1E001C01D92A43DB207E1F710E0C5E355
:1000A000D0E004C02197FE010E94A203C433D1070F
:1000B000C9F70E9440020C94A8030C9400003FB7BB
:1000C000F8948091330190913401A0913501B09161
:1000D000360126B5A89B05C02F3F19F00196A11D3A
:1000E000B11D3FBFBA2FA92F982F8827BC01CD0182
:1000F000620F711D811D911D42E0660F771F881FE1
:10010000991F4A95D1F70895AF92BF92CF92DF928F
:10011000EF92FF920F931F93CF93DF936C017B01BC
:100120008B01040F151FEB015E01AE18BF08C0174D
:10013000D10759F06991D601ED91FC910190F081C0
:10014000E02DC6010995892B79F7C501DF91CF9183
:100150001F910F91FF90EF90DF90CF90BF90AF90E5
:100160000895FC01538D448D252F30E0842F90E0BD
:10017000821B930B541710F0CF96089501970895A2
:10018000FC01918D828D981761F0A28DAE0FBF2F6B
:10019000B11D5D968C91928D9F5F9F73928F90E0C1
:1001A00008958FEF9FEF0895FC01918D828D981730
:1001B00031F0828DE80FF11D858D90E008958FEF6D
:1001C0009FEF0895FC01918D228D892F90E0805C36
:1001D0009F4F821B91098F739927089587E391E0C0
:1001E0000E94E20021E0892B09F420E0822F08958B
:1001F00080E090E0892B29F00E94EE0081110C94A0
:1002000000000895FC01A48DA80FB92FB11DA35AB9
:10021000BF4F2C91848D90E001968F739927848F26
:10022000A689B7892C93A089B1898C918370806449
:100230008C93938D848D981306C00288F389E02DEA
:1002400080818F7D80830895EF92FF920F931F939B
:10025000CF93DF93EC0181E0888F9B8D8C8D981379
:100260001AC0E889F989808185FF15C09FB7F89485
:10027000EE89FF896083E889F989808183708064D1
:1002800080839FBF81E090E0DF91CF911F910F911C
:10029000FF90EF900895F62E0B8D10E00F5F1F4F2B
:1002A0000F731127E02E8C8D8E110CC00FB607FC3A
:1002B000FACFE889F989808185FFF5CFCE010E94C8
:1002C0000201F1CFEB8DEC0FFD2FF11DE35AFF4F33
:1002D000F0829FB7F8940B8FEA89FB898081806256
:1002E000CFCFCF93DF93EC01888D8823B9F0AA8913
:1002F000BB89E889F9898C9185FD03C0808186FDE1
:100300000DC00FB607FCF7CF8C9185FFF2CF80812F
:1003100085FFEDCFCE010E940201E9CFDF91CF91A1
:100320000895FC0101900020E9F73197AF01481BC7
:10033000590BBC0187E391E00C9484001F920F924B
:100340000FB60F9211242F933F938F939F93AF93E8
:10035000BF9380912F0190913001A0913101B09114
:10036000320130912E0123E0230F2D3758F50196ED
:10037000A11DB11D20932E0180932F019093300178
:10038000A0933101B09332018091330190913401F7
:10039000A0913501B09136010196A11DB11D809348
:1003A000330190933401A0933501B0933601BF918E
:1003B000AF919F918F913F912F910F900FBE0F9012
:1003C0001F90189526E8230F0296A11DB11DD2CFCC
:1003D0001F920F920FB60F9211242F933F934F93BA
:1003E0005F936F937F938F939F93AF93BF93EF939D
:1003F000FF9387E391E00E940201FF91EF91BF918B
:10040000AF919F918F917F916F915F914F913F91AC
:100410002F910F900FBE0F901F9018951F920F9263
:100420000FB60F9211242F938F939F93EF93FF9307
:10043000E0914701F09148018081E0914D01F091F8
:100440004E0182FD1BC09081809150018F5F8F73A0
:1004500020915101821741F0E0915001F0E0E95CF8
:10046000FE4F958F80935001FF91EF919F918F9157
:100470002F910F900FBE0F901F9018958081F4CF91
:10048000CF93DF93CDB7DEB7A1970FB6F894DEBF59
:100490000FBECDBF789484B5826084BD84B5816081
:1004A00084BD85B5826085BD85B5816085BD80913F
:1004B0006E00816080936E001092810080918100B7
:1004C00082608093810080918100816080938100AF
:1004D000809180008160809380008091B100846071
:1004E0008093B1008091B00081608093B0008091D2
:1004F0007A00846080937A0080917A008260809391
:100500007A0080917A00816080937A0080917A00ED
:10051000806880937A001092C100E0914701F091C9
:10052000480182E08083E0914301F0914401108210
:10053000E0914501F09146018FEC808310924F01CC
:10054000E0914B01F0914C0186E08083E0914901FC
:10055000F0914A01808180618083E0914901F091AE
:100560004A01808188608083E0914901F0914A01CD
:10057000808180688083E0914901F0914A01808107
:100580008F7D808390E4392E2AE0822E912CA12C3D
:10059000B12C00E010E030927C0080917A00806401
:1005A00080937A0080917A0086FDFCCFC09078001D
:1005B000D090790082E191E00E9491010D2C000C15
:1005C000EE08FF08F7FE59C06DE287E391E00E9454
:1005D000240122273327A9012C193D094E095F095F
:1005E00019A2CE0181967C01CA01B901A50194012D
:1005F0000E948003605DF70162937F012115310540
:100600004105510589F7E114F10419F0C7010E9471
:1006100091018AE291E00E9491010E945F002B010A
:100620003C0184E6C82ED12CE12CF12C0E945F0005
:100630006419750986099709683E7340810591051B
:10064000A8F3F1E0CF1AD108E108F10828EE420E34
:1006500023E0521E611C711CC114D104E104F10499
:1006600029F70115110509F496CF0E94EE008823A1
:1006700009F491CF0E9400008ECFA701960119A224
:10068000CE0181967C01CA01B901A50194010E94A5
:100690008003605DF70162937F01211531054105FB
:1006A000510589F7B0CFE7E3F1E01382128288EEBB
:1006B00093E0A0E0B0E084839583A683B78384E0D1
:1006C00091E09183808385EC90E09587848784EC2A
:1006D00090E09787868780EC90E0918B808B81EC0F
:1006E00090E0938B828B82EC90E0958B848B86ECF0
:1006F00090E0978B868B118E128E138E148E089538
:10070000A1E21A2EAA1BBB1BFD010DC0AA1FBB1F15
:10071000EE1FFF1FA217B307E407F50720F0A21B87
:10072000B30BE40BF50B661F771F881F991F1A94F4
:1007300069F760957095809590959B01AC01BD011E
:10074000CF010895EE0FFF1F0590F491E02D09945D
:04075000F894FFCF4B
:100754000000000024018400B1007101E200C00027
:10076400D40050726573737572652053656E736F30
:0E077400722056616C75653A20000D0A000077
:00000001FF
